:020000040800F2
:1000000000280020C5020008150300081503000899
:100010001503000815030008150300080000000080
:1000200000000000000000000000000015030008B0
:100030001503000800000000150300081503000860
:100040001503000815030008150300081503000830
:100050001503000815030008150300081503000820
:100060001503000815030008150300081503000810
:100070001503000815030008150300081503000800
:1000800015030008150300081503000815030008F0
:1000900015030008150300081503000815030008E0
:1000A00015030008150300081503000815030008D0
:1000B00015030008150300081503000815030008C0
:1000C00015030008150300081503000815030008B0
:1000D00015030008150300081503000815030008A0
:1000E00015030008150300080000000015030008B0
:1000F0001503000815030008150300081503000880
:10010000150300081503000815030008150300086F
:10011000150300081503000815030008150300085F
:10012000150300081503000815030008150300084F
:1001300010B5054C237833B9044B13B10448AFF321
:1001400000800123237010BD00000020000000008B
:100150006003000808B5034B1BB103490348AFF324
:10016000008008BD000000000400002060030008BB
:1001700080B400AF074B1B68064A43F004031360CA
:10018000044B1B68034A43F00803136000BFBD46DD
:1001900080BC70471810024080B400AF1F4B002293
:1001A0001A601F4B00221A601E4B00221A601E4B61
:1001B00000221A60194B1B68184A23F030031360A1
:1001C000164B1B68154A43F040031360144B1B6821
:1001D000134A23F440131360114B1B68104A43F475
:1001E000800313600F4B1B680E4A43F0100313602B
:1001F0000C4B1B680B4A23F0C00313600A4B1B68AF
:10020000094A43F480131360074B1B68064A23F422
:100210004003136000BFBD4680BC7047000801402A
:1002200004080140000C0140040C014080B485B07A
:1002300000AF78600023FB600CE00023BB6002E0AD
:10024000BB680133BB60BA687B689A42F8DBFB6825
:100250000133FB60FB68B3F5FA7FEEDB00BF1437B8
:10026000BD4680BC7047000080B500AFFFF780FF3F
:10027000FFF792FF114B1B6803F00203002B0CD118
:100280000F4B1B680E4A83F00203136000BF0B4B39
:100290001B6803F00203002BF9D0084B1B685B0BB3
:1002A00003F00103012B05D1054B1B68044A83F4BD
:1002B000005313600120FFF7B9FFDBE70808014096
:1002C0000C0C01400D488546AFF300800C480D49E9
:1002D0000D4A002302E0D458C4500433C4188C42A1
:1002E000F9D30A4A0A4C002301E013600432A24207
:1002F000FBD300F011F8FFF7B7FFFEE7002800205E
:100300000000002000000020800300080000002002
:100310001C000020FEE7000070B500250C4E0D4CBF
:10032000A41BA410A54209D100F01AF800250A4E1A
:100330000A4CA41BA410A54205D170BD56F8253067
:1003400098470135EEE756F8253098470135F2E732
:100350007803000878030008780300087C0300088D
:10036000F8B500BFF8BC08BC9E467047F8B500BFA2
:08037000F8BC08BC9E46704772
:040378005501000823
:04037C003101000843
:04000005080002C528
:00000001FF
