S00D00005461736B312E7372656353
S11300000C942A000C9447000C9447000C9447006D
S11300100C9447000C9447000C9447000C94470040
S11300200C9447000C9447000C9447000C94470030
S11300300C9447000C9447000C9447000C94470020
S11300400C9447000C9447000C9447000C94470010
S11300500C94470011241FBECFE5D8E0DEBFCDBF0E
S113006010E0A0E6B0E0EAE3F1E002C005900D92F2
S1130070A036B107D9F710E0A0E6B0E001C01D92A8
S1130080A036B107E1F70E9449000C949B000C9440
S113009000008FEF8ABB20E030E041E050E067E0F1
S11300A070E0E0E0F0E015C0ABB3CA01022E02C07C
S11300B0880F991F0A94E2F78A2B8BBB8FE39DE08C
S11300C0A3E081509040A040E1F700C000002F5F02
S11300D03F4F2830310544F38FE79AE1A6E0815081
S11300E09040A040E1F700C000009B01ABB3CA01FF
S11300F0022E02C0880F991F0A94E2F780958A2382
S11301008BBB8FE39DE0A3E081509040A040E1F7DA
S113011000C00000215030409FEF2F3F390731F7D6
S11301208FE79AE1A6E081509040A040E1F700C03B
S10D013000009F01CECFF894FFCF2A
S9030000FC
