:020000040800F2
:1000000000280020A50A0008F50A0008F50A0008E3
:10001000F50A0008F50A0008F50A000800000000CB
:10002000000000000000000000000000F50A0008C9
:10003000F50A000800000000F50A0008F50A0008AB
:10004000F50A0008F50A0008F50A0008F50A000894
:10005000F50A0008F50A000871010008950100087A
:10006000B9010008DD01000801020008F50A0008D6
:10007000F50A0008F50A0008F50A0008F50A000864
:10008000F50A0008F50A0008F50A0008F50A000854
:10009000F50A0008F50A0008F50A0008250200081C
:1000A000F50A0008F50A0008F50A0008F50A000834
:1000B000F50A0008F50A0008F50A0008F50A000824
:1000C000F50A0008F50A0008F50A0008F50A000814
:1000D000F50A0008F1090008FD090008090A0008EE
:1000E000E1020008F50A000800000000F50A000817
:1000F000F50A0008F50A0008F50A0008F50A0008E4
:10010000F50A0008F50A0008F50A0008F50A0008D3
:10011000F50A0008F50A0008F50A0008F50A0008C3
:10012000F50A0008F50A0008F50A0008F50A0008B3
:1001300010B5054C237833B9044B13B10448AFF321
:1001400000800123237010BD00000020000000008B
:10015000400B000808B5034B1BB103490348AFF33C
:10016000008008BD0000000004000020400B0008D3
:1001700080B500AF054B5B69044A43F0010353614E
:10018000034B1B68984700BF80BD00BF00040140BF
:100190002800002080B500AF054B5B69044A43F09E
:1001A00002035361034B5B68984700BF80BD00BFEB
:1001B000000401402800002080B500AF054B5B69BA
:1001C000044A43F004035361034B9B68984700BF04
:1001D00080BD00BF000401402800002080B500AFB2
:1001E000054B5B69044A43F008035361034BDB682A
:1001F000984700BF80BD00BF0004014028000020D8
:1002000080B500AF054B5B69044A43F010035361AE
:10021000034B1B69984700BF80BD00BF000401402D
:100220002800002080B500AF2B4B5B692A4A03F001
:1002300020035361002B08D0274B5B69264A43F00B
:1002400020035361254B5B699847234B5B69224A26
:1002500003F040035361002B08D01F4B5B691E4A1B
:1002600043F0400353611D4B9B6998471A4B5B69F0
:10027000194A03F080035361002B08D0164B5B69C9
:10028000154A43F080035361144BDB699847124BC6
:100290005B69114A03F480735361002B08D00E4B45
:1002A0005B690D4A43F4807353610C4B1B6A98479A
:1002B000094B5B69084A03F400735361002B08D0B3
:1002C000054B5B69044A43F400735361034B5B6A5B
:1002D000984700BF80BD00BF0004014028000020F7
:1002E00080B500AF334B5B69324A03F480635361DE
:1002F000002B08D02F4B5B692E4A43F48063536177
:100300002D4B9B6A98472B4B5B692A4A03F4006389
:100310005361002B08D0274B5B69264A43F40063E6
:100320005361254BDB6A9847224B5B69214A03F4F2
:1003300080535361002B08D01E4B5B691D4A43F468
:10034000805353611C4B1B6B98471A4B5B69194ACE
:1003500003F400535361002B08D0164B5B69154A18
:1003600043F400535361144B5B6B9847114B5B692B
:10037000104A03F480435361002B08D00D4B5B6996
:100380000C4A43F4804353610B4B9B6B9847094BDA
:100390005B69084A03F400435361002B08D0054B06
:1003A0005B69044A43F400435361034BDB6B98479A
:1003B00000BF80BD000401402800002080B483B04D
:1003C00000AF0346FB80FB88802B42D0802B11DCE2
:1003D000082B36D0082B06DC022B2ED0042B2ED077
:1003E000012B28D047E0202B2FD0402B2FD0102BD3
:1003F00029D040E0B3F5006F33D0B3F5006F09DCCE
:10040000B3F5007F29D0B3F5806F28D0B3F5807F96
:1004100021D030E0B3F5005F27D0B3F5005F03DCF7
:10042000B3F5805F1FD026E0B3F5804F1FD0B3F542
:10043000004F1ED01FE000231EE004231CE0082311
:100440001AE00C2318E0102316E0142314E01823FC
:1004500012E01C2310E000230EE004230CE008232C
:100460000AE00C2308E0102306E0142304E018231C
:1004700002E01C2300E0002318460C37BD4680BC78
:10048000704790B585B000AF786039600023BB60DD
:100490000023FB733B681B88FF2B01D87B6801E0BE
:1004A0007B680433BB603B681B881846FFF786FFF8
:1004B00003461A460F239340DA43BB681B681A4071
:1004C000BB681A603B689B78042B0BD03B689B7819
:1004D000052B07D03B689B78062B03D03B689B78A5
:1004E000072B0ED13B689B78043B9B005AB23B68BC
:1004F000DB785BB213435BB2DBB203F00F03FB7339
:100500002CE03B689B78002B03D03B689B78012B49
:1005100007D13B689B789B00DBB203F00F03FB73B2
:100520001CE03B689B78082B02D10423FB7315E089
:100530000823FB733B689B78022B07D17B68DB6841
:100540003A6812881A437B68DA6007E07B68DB68E8
:100550003A681288D2431A407B68DA60FC7B3B68B9
:100560001B881846FFF72AFF034604FA03F2BB680C
:100570001B681A43BB681A6000BF1437BD4690BDA4
:1005800080B400AF0A4B5B689B0803F00303012BA8
:1005900006D0012B02D3022B04D005E0054B03E06B
:1005A000054B01E0044BFFE71846BD4680BC704791
:1005B0000010024000127A000024F40080B500AF61
:1005C000FFF7DEFF0146064B5B681B0903F00F03D4
:1005D000044A32F8133021FA03F3184680BD00BFF5
:1005E00000100240600B000880B500AFFFF7E6FF87
:1005F0000146054B5B681B0A03F00703034AD35C03
:1006000021FA03F3184680BD00100240580B000881
:1006100080B500AFFFF7D2FF0146054B5B68DB0AF0
:1006200003F00703034AD35C21FA03F3184680BDA5
:1006300000100240580B000880B584B000AF78600D
:1006400039607B68594A934209D1594A3B68136023
:10065000584B9B69574A43F4804393611AE07B6887
:10066000554A934209D1554A3B681360514BDB69A7
:10067000504A43F40033D3610CE07B68504A934204
:1006800008D1504A3B6813604A4BDB69494A43F43E
:100690008023D3617B68DB6843F400527B68DA60B7
:1006A0007B68DB683A6812781A437B68DA607B689B
:1006B000DB683A68127A1A437B68DA607B68DB6829
:1006C0003A68527A1A437B68DA607B681B693A6839
:1006D000927A1A437B681A617B685B693A68D27ABE
:1006E0001A437B685A617B68304A934203D1FFF713
:1006F0008FFFF86002E0FFF777FFF8603B685B6808
:100700001B01FA68B2FBF3F31901FA6813469B0068
:1007100013449A001A443B685B689B00B2FBF3F2F7
:100720003B685B681B01F868B0FBF3F3642000FBD7
:1007300003F3D31A1B01244AA2FB03235B0903F032
:100740000F030B43BB607B68BA689A603B681B7BF6
:10075000002B26D07B68DB683A68127B1A437B68E3
:10076000DA607B68114A934206D1184B1B68174A1E
:1007700043F02003136014E07B680F4A934206D1D4
:10078000124B1B68114A43F04003136009E07B6879
:100790000B4A934205D10D4B1B680C4A43F0800372
:1007A000136000BF1037BD4680BD00BF0038014058
:1007B0001C000020001002400044004020000020E7
:1007C00000480040240000201F85EB5110E100E0AC
:1007D00080B485B000AFF860B9601346FB71FB7957
:1007E000002B06D100BFFB681B6803F08003002BC1
:1007F000F9D0FB68104A934205D1BB681B88DAB276
:10080000FB685A6012E0FB680C4A934205D1BB6852
:100810001B88DAB2FB685A6008E0FB68084A93421A
:1008200004D1BB681B88DAB2FB685A6000BF14377A
:10083000BD4680BC704700BF003801400044004006
:100840000048004080B485B000AFF860B96013463E
:10085000FB71FB79002B06D100BFFB681B6803F01E
:100860002003002BF9D0FB68284A934215D1284B6E
:100870001B685B7A002B07D1FB685B689BB2DBB21D
:100880009AB2BB681A803BE0FB685B689BB203F0DE
:100890007F039AB2BB681A8032E0FB681D4A93421C
:1008A00015D11D4B1B685B7A002B07D1FB685B6879
:1008B0009BB2DBB29AB2BB681A8021E0FB685B682E
:1008C0009BB203F07F039AB2BB681A8018E0FB6802
:1008D000124A934214D1124B1B685B7A002B07D14A
:1008E000FB685B689BB2DBB29AB2BB681A8007E018
:1008F000FB685B689BB203F07F039AB2BB681A8007
:1009000000BF1437BD4680BC704700BF00380140AF
:100910001C0000200044004020000020004800404F
:100920002400002080B584B000AF78607B682B4A3B
:10093000934218D14FF40073BB810623BB7301238C
:10094000FB7307F10C0319462548FFF79AFD4FF496
:100950008063BB810823BB7307F10C031946204851
:10096000FFF78FFD36E07B681E4A934216D10423C1
:10097000BB810623BB730123FB7307F10C031946EC
:100980001748FFF77EFD0823BB810823BB7307F1DF
:100990000C0319461248FFF774FD1BE07B68124AEE
:1009A000934217D14FF48063BB810623BB730123AD
:1009B000FB7307F10C0319460C48FFF762FD4FF477
:1009C0000063BB810823BB7307F10C03194607487A
:1009D000FFF757FD00BF1037BD4680BD003801400E
:1009E000000801400044004000480040000C014065
:1009F00080B400AF00BFBD4680BC704780B400AF7C
:100A000000BFBD4680BC704780B400AF00BFBD468C
:100A100080BC704780B400AF0A4B9B69094A43F021
:100A200004039361074B9B69064A43F008039361F3
:100A3000044B9B69034A43F00103936100BFBD4629
:100A400080BC70470010024080B586B000AFFFF751
:100A5000E1FF4FF4E133BB600023FB7300233B74E1
:100A60000C233B7100237B7300233B730023BB7378
:100A700000237B613B1D19460848FFF7DDFD074851
:100A8000FFF750FF002206490448FFF7DBFE002273
:100A900003490248FFF79CFEF4E700BF003801401D
:100AA000640000200D488546AFF300800C480D49D6
:100AB0000D4A002302E0D458C4500433C4188C42B9
:100AC000F9D30A4A0A4C002301E013600432A2421F
:100AD000FBD300F011F8FFF7B7FFFEE70028002076
:100AE0000000002000000020880B0008000000200B
:100AF00068000020FEE7000070B500250C4E0D4C8C
:100B0000A41BA410A54209D100F01AF800250A4E32
:100B10000A4CA41BA410A54205D170BD56F825307F
:100B200098470135EEE756F8253098470135F2E74A
:100B3000800B0008800B0008800B0008840B000865
:100B4000F8B500BFF8BC08BC9E467047F8B500BFBA
:080B5000F8BC08BC9E4670478A
:100B58000000000001020304000000000000000083
:100B68000000000000000000010002000300040073
:080B7800060007000800090057
:040B80005501000813
:040B84003101000833
:0400000508000AA540
:00000001FF
