S01C0000496E746572727570745F41737369676E6D656E742E73726563C3
S11300000C942A000C945B000C9477000C949300DD
S11300100C9447000C9447000C9447000C94470040
S11300200C9447000C9447000C9447000C94470030
S11300300C9447000C9447000C9447000C94470020
S11300400C9447000C9447000C9447000C94470010
S11300500C94470011241FBECFE5D8E0DEBFCDBF0E
S113006010E0A0E6B0E0E2E6F1E002C005900D92F7
S1130070A036B107D9F710E0A0E6B0E001C01D92A8
S1130080A036B107E1F70E9449000C94AF000C942C
S1130090000081B3806E81BB8FB780688FBF85B746
S11300A08D6085BF84B784BF8BB7806E8BBF9598F6
S11300B096989798FCCF1F920F920FB60F92112427
S11300C08F939F93AF93BF93959A8FE794E8AEE194
S11300D081509040A040E1F700C00000BF91AF9173
S11300E09F918F910F900FBE0F901F9018951F92A4
S11300F00F920FB60F9211248F939F93AF93BF93D8
S1130100969A8FE794E8AEE181509040A040E1F7E1
S113011000C00000BF91AF919F918F910F900FBECF
S11301200F901F9018951F920F920FB60F921124E3
S11301308F939F93AF93BF93979A8FE794E8AEE121
S113014081509040A040E1F700C00000BF91AF9102
S11301509F918F910F900FBE0F901F901895F89458
S1050160FFCFCB
S9030000FC
