:100000000C942A000C9447000C9447000C94470071
:100010000C9447000C9447000C9447000C94470044
:100020000C9447000C9447000C9447000C94470034
:100030000C9447000C9447000C9447000C94470024
:100040000C9447000C9447000C9447000C94470014
:100050000C94470011241FBECFE5D8E0DEBFCDBF12
:1000600010E0A0E6B0E0E6E0F1E002C005900D92FD
:10007000A036B107D9F710E0A0E6B0E001C01D92AC
:10008000A036B107E1F70E9449000C9481000C945E
:1000900000008FEF8ABBA098A89A8898909A80E079
:1000A00090E041E050E068E070E0989910C0EBB358
:1000B0009A01082E02C0220F331F0A94E2F72E2B5A
:1000C0002BBB8830910508F40196989BFECF809950
:1000D000ECCF8930910521F48BB38BBBCB010EC0E3
:1000E000009709F00197EBB39A01082E02C0220F86
:1000F000331F0A94E2F720952E232BBB809BFECF63
:06010000D4CFF894FFCFFC
:00000001FF
